:100000000C949E000C94C6000C94C6000C94C60080
:100010000C94C6000C94C6000C94C6000C94C60048
:100020000C94C6000C94C6000C94C6000C94C60038
:100030000C94C6000C94C6000C94C6000C94C60028
:100040000C94C7030C94C6000C9495030C946F0396
:100050000C94C6000C94C6000C94C6000C94C60008
:100060000C94C6000C94C60007634236B79BD8A711
:100070001A39685618AEBAAB558C1D3CB7CC5763CD
:10008000BD6DEDFD753EF6177231BF000000803F7B
:1000900008000000BE922449123EABAAAA2ABECD97
:1000A000CCCC4C3E00000080BEABAAAAAA3E000009
:1000B0000000BF000000803F000000000008417801
:1000C000D3BB4387D1133D190E3CC3BD4282AD2B38
:1000D0003E68EC8276BED98FE1A93E4C80EFFFBE30
:1000E00001C4FF7F3F00000000000000000024006A
:1000F00027002A0000000000250028002B0004042F
:1001000004040404040402020202020203030303BF
:10011000030301020408102040800102040810209B
:100120000102040810200000000800020100000382
:1001300004070000000000000000690511241FBE34
:10014000CFEFD8E0DEBFCDBF11E0A0E0B1E0E2E04C
:10015000F3E102C005900D92A635B107D9F721E071
:10016000A6E5B1E001C01D92AC3FB207E1F710E097
:10017000CEE9D0E004C02197FE010E947909CD3973
:10018000D107C9F70E9411040C947F090C94000058
:10019000E3E3F1E02491EFE1F1E09491EBE0F1E0B1
:1001A000E491EE23C9F0222339F0233001F1A8F4C1
:1001B000213019F1223029F1F0E0EE0FFF1FEC5051
:1001C000FF4FA591B4912FB7F894EC91811126C0FF
:1001D00090959E239C932FBF08952730A9F0283037
:1001E000C9F0243049F7209180002F7D03C0209171
:1001F00080002F7720938000DFCF24B52F7724BD98
:10020000DBCF24B52F7DFBCF2091B0002F7720933B
:10021000B000D2CF2091B0002F7DF9CF9E2BDACF46
:10022000AF92BF92CF92DF92EF92FF920F931F9304
:10023000CF93DF936C017B018B01040F151FEB0142
:100240005E01AE18BF08C017D10759F06991D601F9
:10025000ED91FC910190F081E02DC6010995892B6B
:1002600079F7C501DF91CF911F910F91FF90EF902A
:10027000DF90CF90BF90AF900895FC01538D448DD7
:10028000252F30E0842F90E0821B930B541710F041
:10029000CF96089501970895FC01918D828D98174E
:1002A00061F0A28DAE0FBF2FB11D5D968C91928D26
:1002B0009F5F9F73928F90E008958FEF9FEF089557
:1002C000FC01918D828D981731F0828DE80FF11D20
:1002D000858D90E008958FEF9FEF0895FC01918D3B
:1002E000228D892F90E0805C9F4F821B91098F7334
:1002F000992708958FE591E00E946E0121E0892BF6
:1003000009F420E0822F089580E090E0892B29F005
:100310000E947A0181110C9400000895FC01A48DC3
:10032000A80FB92FB11DA35ABF4F2C91848D90E017
:1003300001968F739927848FA689B7892C93A089FA
:10034000B1898C91837080648C93938D848D981384
:1003500006C00288F389E02D80818F7D8083089517
:10036000EF92FF920F931F93CF93DF93EC0181E005
:10037000888F9B8D8C8D98131AC0E889F9898081AC
:1003800085FF15C09FB7F894EE89FF896083E889DF
:10039000F98980818370806480839FBF81E090E0D1
:1003A000DF91CF911F910F91FF90EF900895F62E5E
:1003B0000B8D10E00F5F1F4F0F731127E02E8C8DF8
:1003C0008E110CC00FB607FCFACFE889F98980813D
:1003D00085FFF5CFCE010E948E01F1CFEB8DEC0FA2
:1003E000FD2FF11DE35AFF4FF0829FB7F8940B8F5A
:1003F000EA89FB8980818062CFCFCF93DF93EC01C4
:10040000888D8823B9F0AA89BB89E889F9898C91FC
:1004100085FD03C0808186FD0DC00FB607FCF7CFB8
:100420008C9185FFF2CF808185FFEDCFCE010E94B8
:100430008E01E9CFDF91CF9108953FB7F894809175
:100440005B0190915C01A0915D01B0915E0126B5C8
:10045000A89B05C02F3F19F00196A11DB11D3FBFFC
:10046000BA2FA92F982F8827BC01CD01620F711DCB
:10047000811D911D42E0660F771F881F991F4A95C5
:10048000D1F70895FC0101900020E9F73197AF0101
:10049000481B590BBC018FE591E00C9410018F9221
:1004A0009F92AF92BF920F931F93CF93DF93CDB7DD
:1004B000DEB7A1970FB6F894DEBF0FBECDBF19A26D
:1004C000423008F44AE08E010F5D1F4F842E912CBC
:1004D000B12CA12CA50194010E945709E62FB90166
:1004E000CA01EA30F4F4E05DD801EE938D01232BCC
:1004F000242B252B79F790E080E0109719F0CD019F
:100500000E944202A1960FB6F894DEBF0FBECDBF87
:10051000DF91CF911F910F91BF90AF909F908F90DF
:100520000895E95CE1CF4F925F926F927F928F9234
:100530009F92AF92BF92CF92DF92EF92FF920F9372
:100540001F93CF936B017C01742EAC019B010E9421
:100550001D08882399F082E191E0CF911F910F91BE
:10056000FF90EF90DF90CF90BF90AF909F908F90D3
:100570007F906F905F904F900C944202460157011C
:10058000E894B7F82FEF3FEF4FE75FE7C501B401FD
:100590000E941D0881110DC02FEF3FEF4FE75FE76D
:1005A000C501B4010E94030618161CF486E191E00F
:1005B000D4CF2FEF3FEF4FE75FE4C701B6010E94B2
:1005C0005B0718161CF48AE191E0C7CF2FEF3FEFCD
:1005D0004FE75FECC701B6010E94030687FDF3CF2A
:1005E00020E030E0A901C701B6010E94030610E037
:1005F00000E087FF0AC06DE28FE591E00E94B00144
:100600008C01F7FAF094F7F8F094C0E060E070E045
:1006100080E09FE37C1641F020E030E040E251E4CE
:100620000E940806CF5FF6CFA70196010E949705AA
:100630002B013C010E947A064B015C014AE00E94BA
:100640004F027C01E00EF11ECC23C1F1C501B401C3
:100650000E94A9069B01AC01C301B2010E9496054C
:100660004B015C016EE28FE591E00E94B001E80E63
:10067000F91EC15018F120E030E040E251E4C5011C
:10068000B4010E9460072B013C010E947A064B01D5
:10069000B12CA12C4AE0C501B4010E944F02E80E22
:1006A000F91EC501B4010E94A9069B01AC01C3015A
:1006B000B2010E9496054B015C01DBCFC701CF91CF
:1006C0001F910F91FF90EF90DF90CF90BF90AF9070
:1006D0009F908F907F906F905F904F9008951F92A2
:1006E0000F920FB60F9211242F933F934F935F9366
:1006F0006F937F938F939F93AF93BF93EF93FF93EA
:100700008FE591E00E948E01FF91EF91BF91AF9133
:100710009F918F917F916F915F914F913F912F9119
:100720000F900FBE0F901F9018951F920F920FB64B
:100730000F9211242F938F939F93EF93FF93E09148
:100740006F01F09170018081E0917501F091760167
:1007500082FD1BC09081809178018F5F8F73209103
:100760007901821741F0E0917801F0E0E15AFE4F03
:10077000958F80937801FF91EF919F918F912F91A9
:100780000F900FBE0F901F9018958081F4CF1F928D
:100790000F920FB60F9211242F933F938F939F9335
:1007A000AF93BF938091570190915801A091590147
:1007B000B0915A013091560123E0230F2D3758F59F
:1007C0000196A11DB11D209356018093570190936E
:1007D0005801A0935901B0935A0180915B01909107
:1007E0005C01A0915D01B0915E010196A11DB11D5A
:1007F00080935B0190935C01A0935D01B0935E01D7
:10080000BF91AF919F918F913F912F910F900FBE0C
:100810000F901F90189526E8230F0296A11DB11D79
:10082000D2CF789484B5826084BD84B5816084BD64
:1008300085B5826085BD85B5816085BD80916E007E
:10084000816080936E0010928100809181008260AF
:1008500080938100809181008160809381008091EC
:1008600080008160809380008091B10084608093DB
:10087000B1008091B00081608093B00080917A00D7
:10088000846080937A0080917A00826080937A00FD
:1008900080917A00816080937A0080917A008068EC
:1008A00080937A001092C100E0916F01F091700185
:1008B00082E08083E0916B01F0916C011082E09105
:1008C0006D01F0916E018FEC808310927701E091C1
:1008D0007301F091740186E08083E0917101F091E1
:1008E0007201808180618083E0917101F0917201D9
:1008F000808188608083E0917101F0917201808134
:1009000080688083E0917101F091720180818F7D18
:100910008083E0E2F1E02491ECE0F1E0849188232F
:10092000C1F090E0880F991FFC01E651FF4FC5917F
:10093000D491FC01EC50FF4FA591B4919FB7F8946E
:100940008881E22FE0958E2388838C91E823EC93B5
:100950009FBFEFE1F1E02491EBE0F1E08491882387
:1009600099F090E0880F991FFC01E651FF4FA59187
:10097000B491FC01EC50FF4F859194918FB7F8949E
:10098000EC91E22BEC938FBF10E4C0E0D0E00E942A
:100990001D024B015C0188EEC82E83E0D82EE12CAD
:1009A000F12C0E941D02681979098A099B09683E89
:1009B000734081059105A8F321E0C21AD108E1082E
:1009C000F10888EE880E83E0981EA11CB11CC114AA
:1009D000D104E104F10429F710937C0080917A009E
:1009E000806480937A0080917A0086FDFCCF8091AC
:1009F000780060917900762F682F072E000C880B05
:100A0000990B0E94AB062AE038E240EA5BE30E94C1
:100A100060079B01AC0160E070E080EA90E40E9416
:100A2000080620E030E040E85FE30E9496052CE5F0
:100A30003FE549E154E40E9460074B015C0120E876
:100A400033EF47EF57E40E9408062BE13FE245E908
:100A50005FEB0E94CD076B017C018EE191E00E946B
:100A6000420281E291E00E94420242E0C501B401EB
:100A70000E94930283E391E00E9442028EE191E0A2
:100A80000E94420289E391E00E94420242E0C701D3
:100A9000B6010E9493028FE491E00E94420220E09E
:100AA00030E04AEF54E4C701B6010E94030618166D
:100AB00074F081E00E94C800209709F468CF0E947A
:100AC0007A01882309F463CF0E94000060CF80E0A0
:100AD000F1CFEFE5F1E01382128288EE93E0A0E01F
:100AE000B0E084839583A683B78384E091E091830B
:100AF000808385EC90E09587848784EC90E09787ED
:100B0000868780EC90E0918B808B81EC90E0938BDA
:100B1000828B82EC90E0958B848B86EC90E0978BB7
:100B2000868B118E128E138E148E08955058BB270B
:100B3000AA270E94AE050C9421070E94130738F0E3
:100B40000E941A0720F039F49F3F19F426F40C9400
:100B500010070EF4E095E7FB0C940A07E92F0E94BA
:100B6000320758F3BA17620773078407950720F016
:100B700079F4A6F50C9454070EF4E0950B2EBA2FD9
:100B8000A02D0B01B90190010C01CA01A001112493
:100B9000FF27591B99F0593F50F4503E68F11A163F
:100BA000F040A22F232F342F4427585FF3CF4695D0
:100BB00037952795A795F0405395C9F77EF41F16F2
:100BC000BA0B620B730B840BBAF09150A1F0FF0FBC
:100BD000BB1F661F771F881FC2F70EC0BA0F621FA8
:100BE000731F841F48F4879577956795B795F79598
:100BF0009E3F08F0B0CF9395880F08F09927EE0F2D
:100C00009795879508950E94E60608F481E0089577
:100C10000E941C060C9421070E941A0758F00E949B
:100C2000130740F029F45F3F29F00C940A07511193
:100C30000C9455070C9410070E94320768F399230F
:100C4000B1F3552391F3951B550BBB27AA276217C8
:100C50007307840738F09F5F5F4F220F331F441FD5
:100C6000AA1FA9F335D00E2E3AF0E0E832D0915009
:100C70005040E695001CCAF72BD0FE2F29D0660FF6
:100C8000771F881FBB1F261737074807AB07B0E839
:100C900009F0BB0B802DBF01FF2793585F4F3AF03F
:100CA0009E3F510578F00C940A070C9455075F3F5E
:100CB000E4F3983ED4F3869577956795B795F795C5
:100CC0009F5FC9F7880F911D9695879597F90895AD
:100CD000E1E0660F771F881FBB1F62177307840749
:100CE000BA0720F0621B730B840BBA0BEE1F88F758
:100CF000E09508950E943A0788F09F5798F0B92F21
:100D00009927B751B0F0E1F0660F771F881F991F40
:100D10001AF0BA95C9F714C0B13091F00E94540787
:100D2000B1E008950C945407672F782F8827B85F97
:100D300039F0B93FCCF3869577956795B395D9F798
:100D40003EF490958095709561957F4F8F4F9F4FA2
:100D50000895E89409C097FB3EF4909580957095AE
:100D600061957F4F8F4F9F4F9923A9F0F92F96E9F7
:100D7000BB279395F695879577956795B795F1116C
:100D8000F8CFFAF4BB0F11F460FF1BC06F5F7F4F09
:100D90008F4F9F4F16C0882311F096E911C077231B
:100DA00021F09EE8872F762F05C0662371F096E824
:100DB000862F70E060E02AF09A95660F771F881FF3
:100DC000DAF7880F9695879597F90895990F000897
:100DD000550FAA0BE0E8FEEF16161706E807F9070D
:100DE000C0F012161306E407F50798F0621B730BA8
:100DF000840B950B39F40A2661F0232B242B252B29
:100E000021F408950A2609F4A140A6958FEF811DCB
:100E1000811D089597F99F6780E870E060E008956C
:100E20009FEF80EC089500240A9416161706180602
:100E30000906089500240A941216130614060506DE
:100E40000895092E0394000C11F4882352F0BB0F6F
:100E500040F4BF2B11F460FF04C06F5F7F4F8F4FD2
:100E60009F4F089557FD9058440F551F59F05F3F0D
:100E700071F04795880F97FB991F61F09F3F79F0BC
:100E800087950895121613061406551FF2CF46953E
:100E9000F1DF08C0161617061806991FF1CF8695C0
:100EA0007105610508940895E894BB2766277727A4
:100EB000CB0197F908950E94E60608F48FEF089594
:100EC0000E9473070C9421070E94130738F00E94B8
:100ED0001A0720F0952311F00C940A070C941007C0
:100EE00011240C9455070E94320770F3959FC1F3AB
:100EF000950F50E0551F629FF001729FBB27F00DC8
:100F0000B11D639FAA27F00DB11DAA1F649F66271C
:100F1000B00DA11D661F829F2227B00DA11D621F6B
:100F2000739FB00DA11D621F839FA00D611D221F25
:100F3000749F3327A00D611D231F849F600D211D09
:100F4000822F762F6A2F11249F5750409AF0F1F08C
:100F500088234AF0EE0FFF1FBB1F661F771F881FF5
:100F600091505040A9F79E3F510580F00C940A071C
:100F70000C9455075F3FE4F3983ED4F3869577953C
:100F80006795B795F795E7959F5FC1F7FE2B880F9B
:100F9000911D9695879597F90895FA01EE0FFF1F19
:100FA000309621053105A1F16115710561F4803894
:100FB000BFE39B0749F168949038810561F0803860
:100FC000BFEF9B0741F099234AF5FF3FE10531054B
:100FD000210519F1E8940894E795D901AA2329F489
:100FE000AB2FBE2FF85FD0F310C0FF5F70F4A69553
:100FF000E0F7F73950F019F0FF3A38F49F779F93F4
:101000000DD00F9007FC9058089546F00C941007EF
:1010100060E070E080E89FE308954FE79F775F937B
:101020004F933F932F930E94CD082F913F914F9163
:101030005F910E9460070C942A080E94E606880BC4
:10104000990B089529F416F00C940A070C94540790
:101050000C9410070E943A07A8F39638A0F707F8F7
:101060000F92E8942BE33AEA48EB5FE70E94760799
:101070000F920F920F924DB75EB70F920E94150913
:10108000E8E6F0E00E945C084F915F91EF91FF91DC
:10109000E595EE1FFF1F49F0FE57E0684427EE0F6D
:1010A000441FFA95E1F74195550B0E948F080F9068
:1010B00007FE0C9483080895DF93CF931F930F933B
:1010C000FF92EF92DF927B018C01689406C0DA2ECA
:1010D000EF010E947307FE01E894A59125913591D7
:1010E00045915591A6F3EF010E94AE05FE019701CF
:1010F000A801DA9469F7DF90EF90FF900F911F91AC
:10110000CF91DF9108959B01AC0160E070E080E831
:101110009FE30C9408060C940A070C9449090E945A
:101120003A07D8F39923C9F3940F511DA3F39150B3
:10113000504094F059F0882332F0660F771F881FD3
:1011400091505040C1F79E3F51052CF7880F911DDB
:101150009695879597F908955F3FACF0983E9CF07F
:10116000BB27869577956795B79508F4B1609395F9
:10117000C1F7BB0F58F711F460FFE8CF6F5F7F4FE7
:101180008F4F9F4FE3CF0C94550716F00C944909ED
:101190000C94100768940C940A070E943A07A8F36D
:1011A0009923C1F3AEF3DF93CF931F930F93FF9275
:1011B000C92FDD2788232AF02197660F771F881F04
:1011C000DAF720E030E040E85FEB9FE3883920F079
:1011D000803E38F021968F770E949705E0E9F0E095
:1011E00004C00E949705EDEBF0E00E945C088B01C3
:1011F000BE01EC01FB2E6F5771097595771F880BA7
:10120000990B0E94AB0628E132E741E35FE30E94BD
:101210007307AF2D9801AE01FF900F911F91CF91F1
:10122000DF910E94AE050C942107FA01DC01AA0FA0
:10123000BB1F9B01AC01BF5728F42227332744274B
:10124000507820C0B75190F4AB2F002446953795C5
:101250002795011CA395D2F3002071F0220F331FB4
:10126000441FB395DAF30ED00C94960561307105E6
:10127000A0E88A07B94630F49B01AC0166277727BE
:1012800088279078309621F02083318342835383DE
:1012900008959F3F31F0915020F487957795679599
:1012A000B795880F911D9695879597F90895A1E2B6
:1012B0001A2EAA1BBB1BFD010DC0AA1FBB1FEE1FD0
:1012C000FF1FA217B307E407F50720F0A21BB30B1B
:1012D000E40BF50B661F771F881F991F1A9469F797
:1012E00060957095809590959B01AC01BD01CF01F3
:1012F0000895EE0FFF1F0590F491E02D0994F894E6
:02130000FFCF1D
:1013020000000000B00110013D01FD016E014C0121
:1013120060016E616E00696E66006F7666000D0A8E
:1013220000526573697374656E636961204C44523F
:101332003A2000206F686D7300496E74656E7369A0
:10134200646164204C756D696E6F73613A20002090
:061352004C55582000007C
:00000001FF
